:1000000000308A0087290000FF00030E8301A10051
:100010007F08A0000A08A8008A01A00E0408A20018
:100020007708A3007808A4007908A5007A08A6003C
:100030007B08A700831383128B1D20280B183328FD
:10004000220884002308F7002408F8002508F90096
:100050002608FA002708FB0028088A00210E8300E2
:10006000FF0E7F0E09008A116D280A108A100A11EE
:10007000820743346F346E347434613464346F34C3
:100080007234203454346F34743461346C3420341A
:100090003D342034253475340D340A3400340A10CC
:1000A0008A100A11820750346C3461347A34613416
:1000B0007334203464346934733470346F346E3480
:1000C000693462346C346534733420343D34203404
:1000D000253475340D340A3400348316051001308C
:1000E00083128506FF308316860083120608AE0051
:1000F00000302F1A0130B80000302E1A01303802BB
:10010000031D8C280030AF1A0130B9000030AE1A40
:10011000013039020319A0282E1E9028AE1E30157A
:100120002E1A9428AE1A30112E1A9A28AE1A9A282E
:10013000301D30142E1AA028AE1AA0283019B01481
:1001400000302F1B0130B80000302E1B0130380268
:10015000031DB4280030AF1B0130B9000030AE1BC6
:10016000013039020319C4282E1FB828AE1FB0155C
:100170002E1BBC28AE1BB0112E1BC428AE1BC428DE
:10018000B019C428B014B0112E08AF000B108A119A
:10019000202883168510831285100830F800D02897
:1001A0000000F817E128F813B50C03188514031C98
:1001B00085107817E1287813F80BD428DF28000081
:1001C00085143F308400840BE3280000F81BD328FB
:1001D000781BDB2800343608F80135020318F328B1
:1001E0003508F700FF28F7010830B700B50DF70D07
:1001F000360877020318F700F80DB70BF62800341D
:1002000078083308B5006430B600EB207708B300F7
:1002100078083030031D1329B41C1A29B4191A297F
:10022000341A20301629B41134123414F80778081F
:10023000B500C9203308B5000A30B600EB207708B6
:10024000B30078083030031D2B29B4192F29341C32
:100250002F29341A2030F8077808B500C92030302B
:10026000B3073308B500C9200034B108031D3D2988
:1002700029080319AA03A9034029A90A0319AA0AEC
:10028000AA1B4929AA08031D4B2929080A3C031C5B
:100290004B292908AD00AA1F4E29AD01AA1B5A29D6
:1002A000AA08031D572929080A3C03185A29AA013C
:1002B0000A30A900B20132083520B20AF700B500B1
:1002C000C92011303202031D5B292908B3001B30FD
:1002D000B40000210D30B500C9200A30B500C92096
:1002E000B20132084F20B20AF700B500C92015301C
:1002F0003202031D71292D08B3001B30B400002108
:100300000D30B500C9200A30B500C9200034840181
:1003100083131F308305831685108312851483167B
:100320001F129F121B0880399B0007309C000A3067
:100330008312A900AA01AD003010B0103011B01125
:1003400083161F129F121B0880399B0083121F10F7
:10035000941283160611861406120030831294003C
:10036000831694000108C739083881008312900170
:100370000030F800920000308316920007309C0095
:1003800005080630F700F70BC32900001C0883128C
:100390000D1383169D01831203178B15C0300313B1
:1003A0008B0483168F010F08FF3086008312060826
:1003B000AE00301CE3292E1EE329AE1AE329AB0A56
:1003C0003010B1013521B01CEE29AE1EEE292E1AD7
:1003D000EE29AC0AB0100130B10035218316D429C2
:0203E0006300B8
:04400E007B3FFF3FB6
:00000001FF
;PIC16F88
