:1000000000308A009F290000FF00030E8301A10039
:100010007F08A0000A08A8008A01A00E0408A20018
:100020007708A3007808A4007908A5007A08A6003C
:100030007B08A700831383128B1D20280B183328FD
:10004000220884002308F7002408F8002508F90096
:100050002608FA002708FB0028088A00210E8300E2
:10006000FF0E7F0E09008A116D280A108A100A11EE
:10007000820743346F346E347434613464346F34C3
:100080007234203454346F34743461346C3420341A
:100090003D342034253475340D340A3400340A10CC
:1000A0008A100A11820750346C3461347A34613416
:1000B0007334203464346934733470346F346E3480
:1000C000693462346C346534733420343D34203404
:1000D000253475340D340A3400348316051001308C
:1000E00083128506FF308316860083120608AE0051
:1000F00000302F1A0130B80000302E1A01303802BB
:10010000031D8C280030AF1A0130B9000030AE1A40
:10011000013039020319A0282E1E9028AE1E301679
:100120002E1A9428AE1A30122E1A9A28AE1A9A282D
:10013000301E30142E1AA028AE1AA028301AB0147F
:1001400000302F1B0130B80000302E1B0130380268
:10015000031DB4280030AF1B0130B9000030AE1BC6
:10016000013039020319C8282E1FB828AE1FB01657
:100170002E1BBC28AE1BB0122E1BC228AE1BC228E1
:10018000B01E30152E1BC828AE1BC828B01AB015DB
:100190002E08AF000B108A112028831685108312B9
:1001A00085100830F800D4280000F817E528F81367
:1001B000B50C03188514031C85107817E5287813EF
:1001C000F80BD828E328000085143F308400840B06
:1001D000E7280000F81BD728781BDF2800343608F2
:1001E000F80135020318F7283508F7000329F7014D
:1001F0000830B700B50DF70D360877020318F70081
:10020000F80DB70BFA28003478083308B5006430CD
:10021000B600EF207708B30078083030031D1729A7
:10022000B41C1E29B4191E29341A20301A29B411FD
:1002300034123414F8077808B500CD203308B5001F
:100240000A30B600EF207708B30078083030031D7D
:100250002F29B4193329341C3329341A2030F807D4
:100260007808B500CD203030B3073308B500CD2075
:100270000034B108031D412929080319AA03A90361
:100280004429A90A0319AA0AAA1B4D29AA08031D71
:100290004F2929080A3C031C4F292908AD00AA1F31
:1002A0005229AD01AA1B5E29AA08031D5B29290852
:1002B0000A3C03185E29AA010A30A900B2013208DB
:1002C0003520B20AF700B500CD2011303202031DEF
:1002D0005F292908B3001B30B40004210D30B5009C
:1002E000CD200A30B500CD20B20132084F20B20A2D
:1002F000F700B500CD2015303202031D75292D08F9
:10030000B3001B30B40004210D30B500CD200A30FD
:10031000B500CD2000343230840083130008031967
:100320009E290230F800F701F70B9429F80B932966
:100330009730F700F70B9A29800B9129003484013C
:1003400083131F308305831685108312851483164B
:100350001F129F121B0880399B0007309C000A3037
:100360008312A900AA01AD003010B0103011B011F5
:100370003012B01283161F129F121B0880399B0087
:1003800083121F1094128316061186140612003071
:1003900083129400831694000108C739083881003D
:1003A000831290010030F800920000308316920012
:1003B00007309C0005080630F700F70BDD29000028
:1003C0001C0883120D1383169D01831203178B15CE
:1003D000C03003138B0483168F010F08FF30860093
:1003E00083120608AE00301CFD292E1EFD29AE1A10
:1003F000FD29AB0A3010B1013921B01C082AAE1E0C
:10040000082A2E1A082AAC0AB0100130B10039218E
:10041000301D132A2E1F132AAE1B132AAB0A3011CC
:100420000130B1003921B01D1D2AAE1F1D2A2E1B1F
:100430001D2AAC0AB011B10139218316851583122A
:1004400085192B2A0230B100FA30B2008B21B10B92
:10045000242AB1013921831605168312051A3A2A76
:100460000230B100FA30B2008B21B10B322A0130D8
:0A047000B10039218316EE29630064
:04400E007B3FFF3FB6
:00000001FF
;PIC16F88
