:1000000000308A0046280000FF00030E8301A10093
:100010007F08A0000A08A8008A01A00E0408A20018
:100020007708A3007808A4007908A5007A08A6003C
:100030007B08A700831383128B1D20280B183328FD
:10004000220884002308F7002408F8002508F90096
:100050002608FA002708FB0028088A00210E8300E2
:10006000FF0E7F0E09008A113528FF3083168600A7
:1000700083120608AB002B1E3F28AB1E2C142B1F2F
:100080004328AB1FAC140B108A1120288401831362
:100090001F308305831685118312851583161F1261
:1000A0009F121B0880399B0007309C001F129F1273
:1000B0001B0880399B0083121F10941283160611AF
:1000C00086140612003083129400831694000108EF
:1000D000C73908388100831290010030F80092007F
:1000E00000308316920007309C0005081030F7009E
:1000F000F70B782800001C0883120D1383169D014E
:10010000831203178B15C03003138B0483168F01E2
:100110000F0883122C1C8E28AB1AA90AAC1C92283B
:08012000AB1BAA0A8A28630048
:04400E007B3FFF3FB6
:00000001FF
;PIC16F88
