:1000000000308A0033290000FF00030E8301A100A5
:100010007F08A0000A08A8008A01A00E0408A20018
:100020007708A3007808A4007908A5007A08A6003C
:100030007B08A700831383128B1D20280B183328FD
:10004000220884002308F7002408F8002508F90096
:100050002608FA002708FB0028088A00210E8300E2
:10006000FF0E7F0E09008A1194280A108A100A11C7
:10007000820750346C3461347A3461347334203400
:1000800064346934733470346F346E346934623478
:100090006C346534733420343D3420342534753465
:1000A0000D340A3400340A108A100A1182074434CD
:1000B000613474346F34203463346F346E34743488
:1000C000613464346F347234203465346E34743483
:1000D000723461346434613420343D342034253446
:1000E00075340D340A3400340A108A100A1182075C
:1000F0004434613474346F34203463346F346E3478
:100100007434613464346F34723420347334613441
:100110006C3469346434613420343D342034253403
:1001200075340D340A3400348316051001308312FF
:100130008506FF308316860083120608AC002C1E4D
:10014000A328AC1E2D142C1FA728AC1FAD140B1018
:100150008A11202883168510831285100830F80034
:10016000B1280000F817C228F813B20C0318851440
:10017000031C85107817C2287813F80BB528C028FF
:10018000000085143F308400840BC4280000F81B55
:10019000B428781BBC2800343308F8013202031855
:1001A000D4283208F700E028F7010830B400B20D77
:1001B000F70D330877020318F700F80DB40BD728B2
:1001C000003478083008B2006430B300CC207708DF
:1001D000B00078083030031DF428B11CFB28B11999
:1001E000FB28311A2030F728B11131123114F807E9
:1001F0007808B200AA203008B2000A30B300CC2040
:100200007708B00078083030031D0C29B119102987
:10021000311C1029311A2030F8077808B200AA20C2
:100220003030B0073008B200AA200034AE08031DF9
:100230001B29AB031C29AB0AAF012F083520AF0ADD
:10024000F700B200AA2015302F02031D1D292B082C
:10025000B0001B30B100E1200D30B200AA200A30FE
:10026000B200AA200034840183131F308305831653
:1002700085108312851483161F129F121B08803964
:100280009B0007309C00C8308312AB002D10AD10CE
:1002900083161F129F121B0880399B0083121F10A8
:1002A00094128316061186140612003083129400ED
:1002B000831694000108C739083881008312900121
:1002C0000030F800920000308316920007309C0046
:1002D00005080630F700F70B6B2900001C08831295
:1002E0000D1383169D01831203178B15C030031362
:1002F0008B0483168F010F08FF30860083120608D7
:10030000AC002D1C9F29AC1E9F29A90AAE012E0806
:100310005320AE0AF700B200AA2018302E02031DA7
:1003200087292908B0001B30B100E1200D30B20050
:10033000AA200A30B200AA202D10AE011621AD1C51
:10034000BE29AC1FBE29AA0AAE012E087420AE0A2F
:10035000F700B200AA2017302E02031DA5292A0893
:10036000B0001B30B100E1200D30B200AA200A30ED
:10037000B200AA20AD100130AE00162183167C29F0
:02038000630018
:04400E007B3FFF3FB6
:00000001FF
;PIC16F88
