:1000000000308A005B290000FF00030E8301A1007D
:100010007F08A0000A08A8008A01A00E0408A20018
:100020007708A3007808A4007908A5007A08A6003C
:100030007B08A700831383128B1D20280B183328FD
:10004000220884002308F7002408F8002508F90096
:100050002608FA002708FB0028088A00210E8300E2
:10006000FF0E7F0E09008A116D280A108A100A11EE
:10007000820743346F346E347434613464346F34C3
:100080007234203454346F34743461346C3420341A
:100090003D342034253475340D340A3400340A10CC
:1000A0008A100A11820750346C3461347A34613416
:1000B0007334203464346934733470346F346E3480
:1000C000693462346C346534733420343D34203404
:1000D000253475340D340A3400348316051001308C
:1000E00083128506FF308316860083120608AE0051
:1000F0002E1E7C28AE1E2F152E1A8028AE1A2F1108
:100100002E1A8628AE1A86282F1D2F142E1A8A28FA
:100110002F19AF142E1F8E28AE1FAF152E1B92283D
:10012000AE1BAF112E1B9A28AE1B9A28AF199A2826
:10013000AF14AF110B108A1120288316851083127B
:1001400085100830F800A4280000F817B528F81327
:10015000B40C03188514031C85107817B528781380
:10016000F80BA828B328000085143F308400840BC6
:10017000B7280000F81BA728781BAF2800343508E3
:10018000F80134020318C7283408F700D328F70110
:100190000830B600B40DF70D350877020318F700E4
:1001A000F80DB60BCA28003478083208B400643061
:1001B000B500BF207708B20078083030031DE7286B
:1001C000B31CEE28B319EE28331A2030EA28B311F5
:1001D00033123314F8077808B4009D203208B400B5
:1001E0000A30B500BF207708B20078083030031D10
:1001F000FF28B3190329331C0329331A2030F807C9
:100200007808B4009D203030B2073208B4009D2039
:100210000034B008031D112929080319AA03A903F2
:100220001429A90A0319AA0AAA1B1D29AA08031D31
:100230001F2929080A3C031C1F292908AD00AA1FF1
:100240002229AD01AA1B2E29AA08031D2B29290842
:100250000A3C03182E29AA010A30A900B10131086D
:100260003520B10AF700B4009D2011303102031D82
:100270002F292908B2001B30B300D4200D30B40060
:100280009D200A30B4009D20B10131084F20B10AF1
:10029000F700B4009D2015303102031D45292D08BB
:1002A000B2001B30B300D4200D30B4009D200A30C2
:1002B000B4009D200034840183131F30830583160E
:1002C00085108312851483161F129F121B08803914
:1002D0009B0007309C000A308312A900AA01AD00E0
:1002E0002F10AF102F11AF1183161F129F121B0872
:1002F00080399B0083121F109412831606118614F6
:100300000612003083129400831694000108C73946
:1003100008388100831290010030F800920000300C
:100320008316920007309C0005080630F700F70B93
:10033000972900001C0883120D1383169D01831258
:1003400003178B15C03003138B0483168F010F081E
:10035000FF30860083120608AE002F1CB5292E1E22
:10036000B529AB0A2F10B0010921AF1CC029AE1A64
:10037000BB292E1FC029AC0AAF100130B0000921E3
:060380008316A8296300AA
:04400E007B3FFF3FB6
:00000001FF
;PIC16F88
