:1000000000308A00EA290000FF00030E8301A100EE
:100010007F08A0000A08A8008A01A00E0408A20018
:100020007708A3007808A4007908A5007A08A6003C
:100030007B08A700831383128B1D20280B183328FD
:10004000220884002308F7002408F8002508F90096
:100050002608FA002708FB0028088A00210E8300E2
:10006000FF0E7F0E09008A118F280A108A100A11CC
:10007000820743346F346E347434613464346F34C3
:100080007234203454346F34743461346C3420341A
:100090003D342034253475340D340A3400340A10CC
:1000A0008A100A11820750346C3461347A34613416
:1000B0007334203464346934733470346F346E3480
:1000C000693462346C346534733420343D34203404
:1000D000253475340D340A3400340A108A100A119C
:1000E00082076D3461347834203470346C34613478
:1000F0007A3461347334203461346A34753473343F
:100100007434613464346F34203461343A342034CC
:100110003D342034253475340D340A3400348316CC
:100120000510013083128506FF3083168600831286
:100130000608AD0000302E1A0130B70000302D1A2D
:1001400001303702031DAE280030AE1A0130B8006E
:100150000030AD1A013038020319C2282D1EB22812
:10016000AD1E2F162D1AB628AD1A2F122D1ABC2827
:10017000AD1ABC282F1E2F142D1AC228AD1AC22862
:100180002F1AAF1400302E1B0130B70000302D1B8A
:1001900001303702031DD6280030AE1B0130B800F5
:1001A0000030AD1B013038020319EA282D1FDA2870
:1001B000AD1FAF162D1BDE28AD1BAF122D1BE42883
:1001C000AD1BE428AF1E2F152D1BEA28AD1BEA2816
:1001D000AF1AAF152D08AE000B108A112028313050
:1001E000840083130008031902290230F800F70184
:1001F000F70BF828F80BF7289730F700F70BFE28D5
:10020000800BF52800348316851083128510083082
:10021000F8000A290000F8171B29F813B40C03187A
:100220008514031C851078171B297813F80B0E29E9
:100230001929000085143F308400840B1D2900001B
:10024000F81B0D29781B152900343508F8013402F4
:1002500003182D293408F7003929F7010830B600B2
:10026000B40DF70D350877020318F700F80DB60B3B
:100270003029003478083208B4006430B5002521F4
:100280007708B20078083030031D4D29B31C54297B
:10029000B3195429331A20305029B31133123314AF
:1002A000F8077808B40003213208B4000A30B5001A
:1002B00025217708B20078083030031D6529B3196D
:1002C0006929331C6929331A2030F8077808B400EB
:1002D00003213030B2073208B40003210034B008E3
:1002E000031D77292A080319AB03AA037A29AA0A4E
:1002F0000319AB0AAB1F7F29A91F88298129A91BD4
:100300008A29AB08031D8A292A082902031C8A2985
:100310002A08AC00AB1F8D29AC01A91F9229AB1F85
:100320009B299429AB1BA029AB08031D9B292A08F4
:1003300029020318A029FA012908AA007A08AB00AB
:10034000013003178D0003132A0803178C0083164E
:100350008C130C15831203130B08F7008B138316F1
:10036000031755308D00AA308D008C148C18B629D7
:100370000C117708831203138B04B1013108352067
:10038000B10AF700B400032111303102031DBE2968
:100390002A08B2001B30B3003A210D30B40003210B
:1003A0000A30B4000321B10131084F20B10AF7002F
:1003B000B400032115303102031DD4292C08B200EA
:1003C0001B30B3003A210D30B40003210A30B400D1
:1003D00003210034840183131F30830583168510A5
:1003E0008312851483161F129F121B0880399B00ED
:1003F00007309C000A308312A9002F10AF102F1174
:10040000AF112F12AF1283161F129F121B088039D3
:100410009B0083121F109412831606118614061275
:10042000003083129400831694000108C7390838FD
:100430008100831290010030F80092000030831692
:10044000920007309C0005080630F700F70B262ABB
:1004500000001C0883120D1383169D0183120317DD
:100460008B15C03003138B0483168F010F080516FC
:100470008312051ACC2A8316851583128519CC2A76
:10048000FA30B100EF20831605108312051483168D
:1004900005168312051A512A831685158312851DA8
:1004A000472A831605168312051A8E2A8316051607
:1004B0008312051E562AA90303178D010313290869
:1004C00003178C0083168C130C15831203130B086F
:1004D000F7008B138316031755308D00AA308D005B
:1004E0008C148C18712A0C117708831203138B0457
:1004F000B00130086D20B00AF700B40003211930B4
:100500003002031D792A2908B2001B30B3003A21BA
:100510000D30B40003210A30B40003218316851581
:1005200083128519CB2A831685158312851D932A7C
:10053000A90A03178D010313290803178C008316DA
:100540008C130C15831203130B08F7008B138316FF
:10055000031755308D00AA308D008C148C18AE2AEC
:100560000C117708831203138B04B00130086D203F
:10057000B00AF700B400032119303002031DB62A77
:100580002908B2001B30B3003A210D30B40003211A
:100590000A30B4000321512A03178D0183168C13EE
:1005A0000C1483120C080313A900013003178D00EB
:1005B00083168C130C1483120C08FA010313AA007F
:1005C0007A08AB00013003178D0083168C130C14CE
:1005D00083120C080313AC00B00130083520B00AB8
:1005E000F700B400032111303002031DED2A2A0860
:1005F000B2001B30B3003A210D30B40003210A30A1
:10060000B4000321B00130084F20B00AF700B40055
:10061000032115303002031D032B2C08B2001B30C0
:10062000B3003A210D30B40003210A30B400032195
:10063000FF308316860083120608AD002F1C272B7F
:100640002D1E272BAD1A272B2F10B0016F21AF1CA9
:10065000312BAD1E312B2D1A312BAF100130B000D4
:100660006F212F1D3B2B2D1F3B2BAD1B3B2B2F1128
:100670000130B0006F21AF1D442BAD1F442B2D1B4B
:10068000442BAF11B0016F21831685158312851994
:10069000522B0230B000FA30B100EF20B00B4B2BE0
:1006A000B0016F21831605168312051A612B0230E3
:1006B000B000FA30B100EF20B00B592B0130B00080
:0606C0006F21182B6300FE
:04400E007B3FFF3FB6
:00000001FF
;PIC16F88
