:1000000000308A004F290000FF00030E8301A10089
:100010007F08A0000A08A8008A01A00E0408A20018
:100020007708A3007808A4007908A5007A08A6003C
:100030007B08A700831383128B1D20280B183328FD
:10004000220884002308F7002408F8002508F90096
:100050002608FA002708FB0028088A00210E8300E2
:10006000FF0E7F0E09008A1194280A108A100A11C7
:10007000820750346C3461347A3461347334203400
:1000800064346934733470346F346E346934623478
:100090006C346534733420343D3420342534753465
:1000A0000D340A3400340A108A100A1182074434CD
:1000B000613474346F34203463346F346E34743488
:1000C000613464346F347234203465346E34743483
:1000D000723461346434613420343D342034253446
:1000E00075340D340A3400340A108A100A1182075C
:1000F0004434613474346F34203463346F346E3478
:100100007434613464346F34723420347334613441
:100110006C3469346434613420343D342034253403
:1001200075340D340A3400348316051001308312FF
:100130008506FF308316860083120608AD002D1E4B
:10014000A328AD1E2E142D1FA728AD1FAE140B1013
:100150008A11202883168510831285100830F80034
:10016000B1280000F817C228F813B30C031885143F
:10017000031C85107817C2287813F80BB528C028FF
:10018000000085143F308400840BC4280000F81B55
:10019000B428781BBC2800343408F8013302031853
:1001A000D4283308F700E028F7010830B500B30D74
:1001B000F70D340877020318F700F80DB50BD728B0
:1001C000003478083108B3006430B400CC207708DC
:1001D000B10078083030031DF428B21CFB28B21996
:1001E000FB28321A2030F728B21132123214F807E5
:1001F0007808B300AA203108B3000A30B400CC203C
:100200007708B10078083030031D0C29B219102985
:10021000321C1029321A2030F8077808B300AA20BF
:100220003030B1073108B300AA200034AF08031DF5
:100230001E2929080319AA03A9032129A90A0319B8
:10024000AA0AAA1B2D29AA08031D2A292908093C44
:1002500003182D29AA010A30A900AA1B3629AA08C9
:10026000031D38292908003C031C3829AA01A901CB
:10027000B00130083520B00AF700B300AA201530CD
:100280003002031D39292908B1001B30B200E120DA
:100290000D30B300AA200A30B300AA200034840134
:1002A00083131F30830583168510831285148316EC
:1002B0001F129F121B0880399B0007309C000A30D8
:1002C0008312A900AA012E10AE1083161F129F12CE
:1002D0001B0880399B0083121F109412831606118D
:1002E00086140612003083129400831694000108CD
:1002F000C73908388100831290010030F80092005D
:1003000000308316920007309C0005080630F70085
:10031000F70B882900001C0883120D1383169D011A
:10032000831203178B15C03003138B0483168F01C0
:100330000F08FF30860083120608AD002E1CBC2972
:10034000AD1EBC29AB0AAF012F085320AF0AF7003E
:10035000B300AA2018302F02031DA4292B08B100D6
:100360001B30B200E1200D30B300AA200A30B300E8
:10037000AA202E10AF011621AE1CDB29AD1FDB29F0
:10038000AC0AAF012F087420AF0AF700B300AA200F
:1003900017302F02031DC2292C08B1001B30B200F8
:1003A000E1200D30B300AA200A30B300AA20AE101D
:0C03B0000130AF0016218316992963006C
:04400E007B3FFF3FB6
:00000001FF
;PIC16F88
