:1000000000308A0055290000FF00030E8301A10083
:100010007F08A0000A08A8008A01A00E0408A20018
:100020007708A3007808A4007908A5007A08A6003C
:100030007B08A700831383128B1D20280B183328FD
:10004000220884002308F7002408F8002508F90096
:100050002608FA002708FB0028088A00210E8300E2
:10006000FF0E7F0E09008A116D280A108A100A11EE
:10007000820743346F346E347434613464346F34C3
:100080007234203454346F34743461346C3420341A
:100090003D342034253475340D340A3400340A10CC
:1000A0008A100A11820750346C3461347A34613416
:1000B0007334203464346934733470346F346E3480
:1000C000693462346C346534733420343D34203404
:1000D000253475340D340A3400348316051001308C
:1000E00083128506FF308316860083120608AE0051
:1000F0002E1E8028AE1A80282F1980282F158428BC
:100100002E1A8428AE1A2F112E1E8A28AE1E8A2877
:100110002F192F142E1E9028AE1E90282F1DAF14BD
:100120002E1F9428AE1FAF140B108A11202883169F
:100130008510831285100830F8009E280000F817FB
:10014000AF28F813B40C03188514031C8510781716
:10015000AF287813F80BA228AD28000085143F3093
:100160008400840BB1280000F81BA128781BA92863
:1001700000343508F80134020318C1283408F700A8
:10018000CD28F7010830B600B40DF70D3508770219
:100190000318F700F80DB60BC428003478083208AD
:1001A000B4006430B500B9207708B2007808303068
:1001B000031DE128B31CE828B319E828331A2030BE
:1001C000E428B31133123314F8077808B4009720E9
:1001D0003208B4000A30B500B9207708B2007808B8
:1001E0003030031DF928B319FD28331CFD28331ABC
:1001F0002030F8077808B40097203030B207320872
:10020000B40097200034B008031D0B2929080319F6
:10021000AA03A9030E29A90A0319AA0AAA1B1729C6
:10022000AA08031D192929080A3C031C19292908B1
:10023000AD00AA1F1C29AD01AA1B2829AA08031D6D
:10024000252929080A3C03182829AA010A30A900EF
:10025000B10131083520B10AF700B4009720113000
:100260003102031D29292908B2001B30B300CE201A
:100270000D30B40097200A30B4009720B101310846
:100280004F20B10AF700B400972015303102031D4A
:100290003F292D08B2001B30B300CE200D30B40032
:1002A00097200A30B40097200034840183131F3054
:1002B0008305831685108312851483161F129F12DF
:1002C0001B0880399B0007309C000A308312A9006C
:1002D000AA01AD002F10AF102F11AF1183161F12FE
:1002E0009F121B0880399B0083121F1094128316E3
:1002F00006118614061200308312940083169400AF
:100300000108C73908388100831290010030F800D5
:10031000920000308316920007309C0005080630DA
:10032000F700F70B912900001C0883120D138316A8
:100330009D01831203178B15C03003138B048316A2
:100340008F010F08FF30860083120608AE002F1CB5
:10035000AF29AE1EAF29AB0A2F10B0010321AF1C8D
:10036000B829AE1FB829AC0AAF100130B000032184
:060370008316A2296300C0
:04400E007B3FFF3FB6
:00000001FF
;PIC16F88
