:1000000000308A0035290000FF00030E8301A100A3
:100010007F08A0000A08A8008A01A00E0408A20018
:100020007708A3007808A4007908A5007A08A6003C
:100030007B08A700831383128B1D20280B183328FD
:10004000220884002308F7002408F8002508F90096
:100050002608FA002708FB0028088A00210E8300E2
:10006000FF0E7F0E09008A116D280A108A100A11EE
:10007000820743346F346E347434613464346F34C3
:100080007234203454346F34743461346C3420341A
:100090003D342034253475340D340A3400340A10CC
:1000A0008A100A11820750346C3461347A34613416
:1000B0007334203464346934733470346F346E3480
:1000C000693462346C346534733420343D34203404
:1000D000253475340D340A3400348316051001308C
:1000E00083128506FF308316860083120608AE0051
:1000F0002E1E7C28AE1E2F142E1F8028AE1FAF147C
:100100000B108A1120288316851083128510083061
:10011000F8008A280000F8179B28F813B40C03187D
:100120008514031C851078179B287813F80B8E28EC
:100130009928000085143F308400840B9D2800001E
:10014000F81B8D28781B952800343508F8013402F7
:100150000318AD283408F700B928F7010830B600B5
:10016000B40DF70D350877020318F700F80DB60B3C
:10017000B028003478083208B4006430B500A520F7
:100180007708B20078083030031DCD28B31CD4287E
:10019000B319D428331A2030D028B31133123314B2
:1001A000F8077808B40083203208B4000A30B5009C
:1001B000A5207708B20078083030031DE528B31970
:1001C000E928331CE928331A2030F8077808B400EE
:1001D00083203030B2073208B40083200034B008E6
:1001E000031DF72829080319AA03A903FA28A90A55
:1001F0000319AA0AAA1B0329AA08031D052929080D
:100200000A3C031C05292908AD00AA1F0829AD01D5
:10021000B10131083520B10AF700B4008320113054
:100220003102031D09292908B2001B30B300BA208E
:100230000D30B40083200A30B4008320B1013108AE
:100240004F20B10AF700B400832015303102031D9E
:100250001F292D08B2001B30B300BA200D30B400A6
:1002600083200A30B40083200034840183131F30BC
:100270008305831685108312851483161F129F121F
:100280001B0880399B0007309C000A308312A900AC
:10029000AA012F10AF1083161F129F121B0880395E
:1002A0009B0083121F1094128316061186140612E7
:1002B000003083129400831694000108C73908386F
:1002C0008100831290010030F80092000030831604
:1002D000920007309C0005080630F700F70B6E29E6
:1002E00000001C0883120D1383169D01831203174F
:1002F0008B15C03003138B0483168F010F08FF305A
:10030000860083120608AE002F1C8C29AE1E8C2995
:10031000AB0A2F10B001EF20AF1C9529AE1F952915
:10032000AC0AAF100130B000EF2083167F296300C4
:04400E007B3FFF3FB6
:00000001FF
;PIC16F88
